{
  "_format": "hh-sol-artifact-1",
  "contractName": "FundingVaults",
  "sourceName": "contracts/FundingVaults.sol",
  "abi": [
    {
      "inputs": [],
      "stateMutability": "nonpayable",
      "type": "constructor"
    },
    {
      "anonymous": false,
      "inputs": [
        {
          "indexed": false,
          "internalType": "uint256",
          "name": "id",
          "type": "uint256"
        }
      ],
      "name": "Cancel",
      "type": "event"
    },
    {
      "anonymous": false,
      "inputs": [
        {
          "indexed": false,
          "internalType": "uint256",
          "name": "id",
          "type": "uint256"
        }
      ],
      "name": "Claim",
      "type": "event"
    },
    {
      "anonymous": false,
      "inputs": [
        {
          "indexed": false,
          "internalType": "uint256",
          "name": "id",
          "type": "uint256"
        },
        {
          "indexed": true,
          "internalType": "address",
          "name": "creator",
          "type": "address"
        },
        {
          "indexed": false,
          "internalType": "uint256",
          "name": "goal",
          "type": "uint256"
        },
        {
          "indexed": false,
          "internalType": "uint32",
          "name": "startAt",
          "type": "uint32"
        },
        {
          "indexed": false,
          "internalType": "uint32",
          "name": "endAt",
          "type": "uint32"
        }
      ],
      "name": "Launch",
      "type": "event"
    },
    {
      "anonymous": false,
      "inputs": [
        {
          "indexed": true,
          "internalType": "uint256",
          "name": "id",
          "type": "uint256"
        },
        {
          "indexed": true,
          "internalType": "address",
          "name": "caller",
          "type": "address"
        },
        {
          "indexed": false,
          "internalType": "uint256",
          "name": "amount",
          "type": "uint256"
        }
      ],
      "name": "Pledge",
      "type": "event"
    },
    {
      "anonymous": false,
      "inputs": [
        {
          "indexed": false,
          "internalType": "uint256",
          "name": "id",
          "type": "uint256"
        },
        {
          "indexed": true,
          "internalType": "address",
          "name": "caller",
          "type": "address"
        },
        {
          "indexed": false,
          "internalType": "uint256",
          "name": "amount",
          "type": "uint256"
        }
      ],
      "name": "Refund",
      "type": "event"
    },
    {
      "anonymous": false,
      "inputs": [
        {
          "indexed": true,
          "internalType": "uint256",
          "name": "id",
          "type": "uint256"
        },
        {
          "indexed": true,
          "internalType": "address",
          "name": "caller",
          "type": "address"
        },
        {
          "indexed": false,
          "internalType": "uint256",
          "name": "amount",
          "type": "uint256"
        }
      ],
      "name": "Unpledge",
      "type": "event"
    },
    {
      "inputs": [],
      "name": "_identityRegistry",
      "outputs": [
        {
          "internalType": "address",
          "name": "",
          "type": "address"
        }
      ],
      "stateMutability": "view",
      "type": "function"
    },
    {
      "inputs": [
        {
          "internalType": "uint256",
          "name": "",
          "type": "uint256"
        }
      ],
      "name": "campaigns",
      "outputs": [
        {
          "internalType": "address",
          "name": "creator",
          "type": "address"
        },
        {
          "internalType": "uint256",
          "name": "goal",
          "type": "uint256"
        },
        {
          "internalType": "uint256",
          "name": "max",
          "type": "uint256"
        },
        {
          "internalType": "uint256",
          "name": "pledged",
          "type": "uint256"
        },
        {
          "internalType": "uint32",
          "name": "startAt",
          "type": "uint32"
        },
        {
          "internalType": "uint32",
          "name": "endAt",
          "type": "uint32"
        },
        {
          "internalType": "address",
          "name": "receiptToken",
          "type": "address"
        },
        {
          "internalType": "bool",
          "name": "claimed",
          "type": "bool"
        }
      ],
      "stateMutability": "view",
      "type": "function"
    },
    {
      "inputs": [
        {
          "internalType": "uint256",
          "name": "_id",
          "type": "uint256"
        }
      ],
      "name": "cancel",
      "outputs": [],
      "stateMutability": "nonpayable",
      "type": "function"
    },
    {
      "inputs": [
        {
          "internalType": "uint256",
          "name": "_id",
          "type": "uint256"
        }
      ],
      "name": "checkInvestorList",
      "outputs": [
        {
          "components": [
            {
              "internalType": "address",
              "name": "investor",
              "type": "address"
            },
            {
              "internalType": "uint256",
              "name": "amount",
              "type": "uint256"
            }
          ],
          "internalType": "struct FundingVaults.Investing[]",
          "name": "",
          "type": "tuple[]"
        }
      ],
      "stateMutability": "view",
      "type": "function"
    },
    {
      "inputs": [
        {
          "internalType": "uint256",
          "name": "_id",
          "type": "uint256"
        }
      ],
      "name": "claim",
      "outputs": [],
      "stateMutability": "nonpayable",
      "type": "function"
    },
    {
      "inputs": [],
      "name": "count",
      "outputs": [
        {
          "internalType": "uint256",
          "name": "",
          "type": "uint256"
        }
      ],
      "stateMutability": "view",
      "type": "function"
    },
    {
      "inputs": [
        {
          "internalType": "uint256",
          "name": "",
          "type": "uint256"
        },
        {
          "internalType": "uint256",
          "name": "",
          "type": "uint256"
        }
      ],
      "name": "investorInfo",
      "outputs": [
        {
          "internalType": "address",
          "name": "investor",
          "type": "address"
        },
        {
          "internalType": "uint256",
          "name": "amount",
          "type": "uint256"
        }
      ],
      "stateMutability": "view",
      "type": "function"
    },
    {
      "inputs": [
        {
          "internalType": "uint256",
          "name": "_goal",
          "type": "uint256"
        },
        {
          "internalType": "uint256",
          "name": "_max",
          "type": "uint256"
        },
        {
          "internalType": "uint32",
          "name": "_startAt",
          "type": "uint32"
        },
        {
          "internalType": "uint32",
          "name": "_endAt",
          "type": "uint32"
        },
        {
          "internalType": "address",
          "name": "_receiptToken",
          "type": "address"
        }
      ],
      "name": "launch",
      "outputs": [],
      "stateMutability": "nonpayable",
      "type": "function"
    },
    {
      "inputs": [
        {
          "internalType": "uint256",
          "name": "_id",
          "type": "uint256"
        },
        {
          "internalType": "uint256",
          "name": "_amount",
          "type": "uint256"
        }
      ],
      "name": "pledge",
      "outputs": [],
      "stateMutability": "nonpayable",
      "type": "function"
    },
    {
      "inputs": [
        {
          "internalType": "uint256",
          "name": "",
          "type": "uint256"
        },
        {
          "internalType": "address",
          "name": "",
          "type": "address"
        }
      ],
      "name": "pledgedAmount",
      "outputs": [
        {
          "internalType": "uint256",
          "name": "",
          "type": "uint256"
        }
      ],
      "stateMutability": "view",
      "type": "function"
    },
    {
      "inputs": [
        {
          "internalType": "uint256",
          "name": "_id",
          "type": "uint256"
        }
      ],
      "name": "refund",
      "outputs": [],
      "stateMutability": "nonpayable",
      "type": "function"
    },
    {
      "inputs": [
        {
          "internalType": "address",
          "name": "_newIdentityRegistry",
          "type": "address"
        }
      ],
      "name": "setIdentityRegistry",
      "outputs": [],
      "stateMutability": "nonpayable",
      "type": "function"
    },
    {
      "inputs": [],
      "name": "token",
      "outputs": [
        {
          "internalType": "contract IERC20",
          "name": "",
          "type": "address"
        }
      ],
      "stateMutability": "view",
      "type": "function"
    },
    {
      "inputs": [
        {
          "internalType": "uint256",
          "name": "_id",
          "type": "uint256"
        },
        {
          "internalType": "uint256",
          "name": "_amount",
          "type": "uint256"
        }
      ],
      "name": "unpledge",
      "outputs": [],
      "stateMutability": "nonpayable",
      "type": "function"
    }
  ],
  "bytecode": "0x60a060405234801561001057600080fd5b50730d81dfc1861aab6a0124d28c0e8d2673051d470f608052600180546001600160a01b03191673ed14018aeb46fa52af49708ac83948f5785408c717905560805161145e6100866000396000818161030a0152818161075e01528181610b6301528181610e880152611180015261145e6000f3fe608060405234801561001057600080fd5b50600436106100ea5760003560e01c8063711853ab1161008c578063b4eb7efc11610066578063b4eb7efc146102b5578063cbf3f861146102d5578063fc0c546a14610305578063fde327be1461032c57600080fd5b8063711853ab1461024c57806391993b611461025f578063aa4fb63a1461028a57600080fd5b8063278ecde1116100c8578063278ecde1146101e1578063379607f5146101f457806340e58ee5146102075780635fa19d281461021a57600080fd5b806306661abd146100ef5780630c42f3b41461010b578063141961bc14610120575b600080fd5b6100f860005481565b6040519081526020015b60405180910390f35b61011e61011936600461125d565b61033f565b005b61018e61012e3660046112b4565b6002602081905260009182526040909120805460018201549282015460038301546004909301546001600160a01b039283169493919263ffffffff80831692600160201b810490911691600160401b82041690600160e01b900460ff1688565b604080516001600160a01b03998a1681526020810198909852870195909552606086019390935263ffffffff91821660808601521660a084015290921660c082015290151560e082015261010001610102565b61011e6101ef3660046112b4565b61060a565b61011e6102023660046112b4565b61080c565b61011e6102153660046112b4565b610c09565b61022d6102283660046112cd565b610d88565b604080516001600160a01b039093168352602083019190915201610102565b61011e61025a3660046112cd565b610dce565b600154610272906001600160a01b031681565b6040516001600160a01b039091168152602001610102565b6100f86102983660046112ef565b600360209081526000928352604080842090915290825290205481565b6102c86102c33660046112b4565b610f3a565b604051610102919061131b565b61011e6102e3366004611373565b600180546001600160a01b0319166001600160a01b0392909216919091179055565b6102727f000000000000000000000000000000000000000000000000000000000000000081565b61011e61033a3660046112cd565b610fc2565b428363ffffffff16101561038b5760405162461bcd60e51b815260206004820152600e60248201526d7374617274206174203c206e6f7760901b60448201526064015b60405180910390fd5b8263ffffffff168263ffffffff1610156103db5760405162461bcd60e51b8152602060048201526011602482015270195b9908185d080f081cdd185c9d08185d607a1b6044820152606401610382565b6103e8426276a7006113ab565b8263ffffffff1611156104355760405162461bcd60e51b815260206004820152601560248201527432b7321030ba101f1036b0bc10323ab930ba34b7b760591b6044820152606401610382565b600160008082825461044791906113ab565b9091555050604080516101008101825233808252602080830189815283850189815260006060860181815263ffffffff8b8116608089019081528b821660a08a019081526001600160a01b038c811660c08c0181815260e08d018881528854895260029b8c9052978e90209c518d549084166001600160a01b0319909116178d55985160018d01559651988b0198909855925160038a015551600498890180549351965194511515600160e01b0260ff60e01b1995909816600160401b029490941668010000000000000000600160e81b0319968316600160201b0267ffffffffffffffff19909416919092161791909117939093169290921792909217905592516323b872dd60e01b815291820152306024820152604481018690526323b872dd906064016020604051808303816000875af115801561058c573d6000803e3d6000fd5b505050506040513d601f19601f820116820180604052508101906105b091906113c4565b50600054604080519182526020820187905263ffffffff85811683830152841660608301525133917f0601cd0d650b473037e838a2696d41e654433d065b3f56b28d1d3302e44a304f919081900360800190a25050505050565b60008181526002602081815260409283902083516101008101855281546001600160a01b03908116825260018301549382019390935292810154938301939093526003830154606083015260049092015463ffffffff8082166080840152600160201b82041660a08301819052600160401b820490931660c0830152600160e01b900460ff16151560e08201529042116106d25760405162461bcd60e51b81526020600482015260096024820152681b9bdd08195b99195960ba1b6044820152606401610382565b806020015181606001511061071b5760405162461bcd60e51b815260206004820152600f60248201526e1c1b195919d959080f8f4819dbd85b608a1b6044820152606401610382565b600082815260036020908152604080832033808552925280832080549390555163a9059cbb60e01b81526004810191909152602481018290526001600160a01b037f0000000000000000000000000000000000000000000000000000000000000000169063a9059cbb906044016020604051808303816000875af11580156107a7573d6000803e3d6000fd5b505050506040513d601f19601f820116820180604052508101906107cb91906113c4565b50604080518481526020810183905233917f21e12a7cad0da5928167e1084ea4d5fdf8d9af66657a2543a9ac76a0ca081477910160405180910390a2505050565b600081815260026020526040902080546001600160a01b031633146108615760405162461bcd60e51b815260206004820152600b60248201526a3737ba1031b932b0ba37b960a91b6044820152606401610382565b6004810154600160201b900463ffffffff1642116108ad5760405162461bcd60e51b81526020600482015260096024820152681b9bdd08195b99195960ba1b6044820152606401610382565b8060010154816003015410156108f65760405162461bcd60e51b815260206004820152600e60248201526d1c1b195919d959080f0819dbd85b60921b6044820152606401610382565b6004810154600160e01b900460ff161561093c5760405162461bcd60e51b815260206004820152600760248201526618db185a5b595960ca1b6044820152606401610382565b8060030154816002015411156109e85760008160030154826002015461096291906113e6565b60048381015460405163a9059cbb60e01b8152339281019290925260248201839052919250600160401b9091046001600160a01b03169063a9059cbb906044016020604051808303816000875af11580156109c1573d6000803e3d6000fd5b505050506040513d601f19601f820116820180604052508101906109e591906113c4565b50505b60005b600083815260046020526040902054811015610b1f578160040160089054906101000a90046001600160a01b03166001600160a01b031663a9059cbb600460008681526020019081526020016000208381548110610a4b57610a4b6113f9565b600091825260208083206002909202909101548783526004909152604090912080546001600160a01b039092169185908110610a8957610a896113f9565b60009182526020909120600160029092020101546040516001600160e01b031960e085901b1681526001600160a01b03909216600483015260248201526044016020604051808303816000875af1158015610ae8573d6000803e3d6000fd5b505050506040513d601f19601f82011682018060405250810190610b0c91906113c4565b5080610b178161140f565b9150506109eb565b506004818101805460ff60e01b1916600160e01b1790558154600383015460405163a9059cbb60e01b81526001600160a01b039283169381019390935260248301527f0000000000000000000000000000000000000000000000000000000000000000169063a9059cbb906044016020604051808303816000875af1158015610bac573d6000803e3d6000fd5b505050506040513d601f19601f82011682018060405250810190610bd091906113c4565b506040518281527f7bb2b3c10797baccb6f8c4791f1edd6ca2f0d028ee0eda64b01a9a57e3a653f7906020015b60405180910390a15050565b60008181526002602081815260409283902083516101008101855281546001600160a01b039081168083526001840154948301949094529382015494810194909452600381015460608501526004015463ffffffff8082166080860152600160201b82041660a0850152600160401b810490921660c0840152600160e01b90910460ff16151560e08301523314610cd05760405162461bcd60e51b815260206004820152600b60248201526a3737ba1031b932b0ba37b960a91b6044820152606401610382565b806080015163ffffffff164210610d135760405162461bcd60e51b81526020600482015260076024820152661cdd185c9d195960ca1b6044820152606401610382565b600082815260026020819052604080832080546001600160a01b031916815560018101849055918201839055600382019290925560040180546001600160e81b0319169055517f8bf30e7ff26833413be5f69e1d373744864d600b664204b4a2f9844a8eedb9ed90610bfd9084815260200190565b60046020528160005260406000208181548110610da457600080fd5b6000918252602090912060029091020180546001909101546001600160a01b039091169250905082565b60008281526002602052604090206004810154600160201b900463ffffffff16421115610e255760405162461bcd60e51b8152602060048201526005602482015264195b99195960da1b6044820152606401610382565b81816003016000828254610e3991906113e6565b9091555050600083815260036020908152604080832033845290915281208054849290610e679084906113e6565b909155505060405163a9059cbb60e01b8152336004820152602481018390527f00000000000000000000000000000000000000000000000000000000000000006001600160a01b03169063a9059cbb906044016020604051808303816000875af1158015610ed9573d6000803e3d6000fd5b505050506040513d601f19601f82011682018060405250810190610efd91906113c4565b50604051828152339084907f2eeeab891b26a214d1b25749f88a406bdea852bd8c9bfda977e0ef8114c180ba9060200160405180910390a3505050565b606060046000838152602001908152602001600020805480602002602001604051908101604052809291908181526020016000905b82821015610fb7576000848152602090819020604080518082019091526002850290910180546001600160a01b03168252600190810154828401529083529092019101610f6f565b505050509050919050565b6000828152600260205260409020600481015463ffffffff164210156110185760405162461bcd60e51b815260206004820152600b60248201526a1b9bdd081cdd185c9d195960aa1b6044820152606401610382565b6004810154600160201b900463ffffffff164211156110615760405162461bcd60e51b8152602060048201526005602482015264195b99195960da1b6044820152606401610382565b806002015482826003015461107691906113ab565b11156110b55760405162461bcd60e51b815260206004820152600e60248201526d13585e1a5b5d5b48105b5bdd5b9d60921b6044820152606401610382565b818160030160008282546110c991906113ab565b90915550506000838152600360209081526040808320338452909152812080548492906110f79084906113ab565b90915550506040805180820182523380825260208083018681526000888152600480845286822080546001808201835591845294909220865160029095020180546001600160a01b039586166001600160a01b03199091161781559251929091019190915593516323b872dd60e01b8152938401919091523060248401526044830185905290917f0000000000000000000000000000000000000000000000000000000000000000909116906323b872dd906064016020604051808303816000875af11580156111cb573d6000803e3d6000fd5b505050506040513d601f19601f820116820180604052508101906111ef91906113c4565b50604051838152339085907f06bdb975df800a73232998e71ed585d536222f1dfeaa622d7f62a23ada686c829060200160405180910390a350505050565b803563ffffffff8116811461124157600080fd5b919050565b80356001600160a01b038116811461124157600080fd5b600080600080600060a0868803121561127557600080fd5b853594506020860135935061128c6040870161122d565b925061129a6060870161122d565b91506112a860808701611246565b90509295509295909350565b6000602082840312156112c657600080fd5b5035919050565b600080604083850312156112e057600080fd5b50508035926020909101359150565b6000806040838503121561130257600080fd5b8235915061131260208401611246565b90509250929050565b602080825282518282018190526000919060409081850190868401855b8281101561136657815180516001600160a01b03168552860151868501529284019290850190600101611338565b5091979650505050505050565b60006020828403121561138557600080fd5b61138e82611246565b9392505050565b634e487b7160e01b600052601160045260246000fd5b808201808211156113be576113be611395565b92915050565b6000602082840312156113d657600080fd5b8151801515811461138e57600080fd5b818103818111156113be576113be611395565b634e487b7160e01b600052603260045260246000fd5b60006001820161142157611421611395565b506001019056fea2646970667358221220b874d1dc9764017366fd36df1a60a674fd176da737ed4e4c5ee03ea027b1457364736f6c63430008110033",
  "linkReferences": {},
  "deployedLinkReferences": {}
}