{
  "_format": "hh-sol-artifact-1",
  "contractName": "Vaults",
  "sourceName": "contracts/Vaults.sol",
  "abi": [
    {
      "inputs": [],
      "stateMutability": "nonpayable",
      "type": "constructor"
    },
    {
      "inputs": [],
      "name": "_identityRegistry",
      "outputs": [
        {
          "internalType": "address",
          "name": "",
          "type": "address"
        }
      ],
      "stateMutability": "view",
      "type": "function"
    },
    {
      "inputs": [],
      "name": "_paybackPercent",
      "outputs": [
        {
          "internalType": "uint256",
          "name": "",
          "type": "uint256"
        }
      ],
      "stateMutability": "view",
      "type": "function"
    },
    {
      "inputs": [],
      "name": "_percent",
      "outputs": [
        {
          "internalType": "uint256",
          "name": "",
          "type": "uint256"
        }
      ],
      "stateMutability": "view",
      "type": "function"
    },
    {
      "inputs": [],
      "name": "_percentStakeHolder",
      "outputs": [
        {
          "internalType": "uint256",
          "name": "",
          "type": "uint256"
        }
      ],
      "stateMutability": "view",
      "type": "function"
    },
    {
      "inputs": [],
      "name": "_recentShare",
      "outputs": [
        {
          "internalType": "uint256",
          "name": "",
          "type": "uint256"
        }
      ],
      "stateMutability": "view",
      "type": "function"
    },
    {
      "inputs": [],
      "name": "_remainingDebt",
      "outputs": [
        {
          "internalType": "uint256",
          "name": "",
          "type": "uint256"
        }
      ],
      "stateMutability": "view",
      "type": "function"
    },
    {
      "inputs": [],
      "name": "_stakeHolderBalance",
      "outputs": [
        {
          "internalType": "uint256",
          "name": "",
          "type": "uint256"
        }
      ],
      "stateMutability": "view",
      "type": "function"
    },
    {
      "inputs": [],
      "name": "_stakeHolderSupply",
      "outputs": [
        {
          "internalType": "uint256",
          "name": "",
          "type": "uint256"
        }
      ],
      "stateMutability": "view",
      "type": "function"
    },
    {
      "inputs": [],
      "name": "_tokenAsset",
      "outputs": [
        {
          "internalType": "address",
          "name": "",
          "type": "address"
        }
      ],
      "stateMutability": "view",
      "type": "function"
    },
    {
      "inputs": [],
      "name": "_tokenStakeholder",
      "outputs": [
        {
          "internalType": "address",
          "name": "",
          "type": "address"
        }
      ],
      "stateMutability": "view",
      "type": "function"
    },
    {
      "inputs": [],
      "name": "_transferBalance",
      "outputs": [
        {
          "internalType": "uint256",
          "name": "",
          "type": "uint256"
        }
      ],
      "stateMutability": "view",
      "type": "function"
    },
    {
      "inputs": [
        {
          "internalType": "uint256",
          "name": "amount",
          "type": "uint256"
        },
        {
          "internalType": "address[]",
          "name": "holders",
          "type": "address[]"
        }
      ],
      "name": "depositRevenue",
      "outputs": [],
      "stateMutability": "nonpayable",
      "type": "function"
    },
    {
      "inputs": [
        {
          "internalType": "address",
          "name": "_newAsset",
          "type": "address"
        }
      ],
      "name": "setAsset",
      "outputs": [],
      "stateMutability": "nonpayable",
      "type": "function"
    },
    {
      "inputs": [
        {
          "internalType": "uint256",
          "name": "_debt",
          "type": "uint256"
        }
      ],
      "name": "setDebt",
      "outputs": [],
      "stateMutability": "nonpayable",
      "type": "function"
    },
    {
      "inputs": [
        {
          "internalType": "address",
          "name": "_newIdentityRegistry",
          "type": "address"
        }
      ],
      "name": "setIdentityRegistry",
      "outputs": [],
      "stateMutability": "nonpayable",
      "type": "function"
    },
    {
      "inputs": [
        {
          "internalType": "uint256",
          "name": "_newShare",
          "type": "uint256"
        }
      ],
      "name": "setPaybackPercent",
      "outputs": [],
      "stateMutability": "nonpayable",
      "type": "function"
    },
    {
      "inputs": [
        {
          "internalType": "address",
          "name": "_newTokenStakeHolder",
          "type": "address"
        }
      ],
      "name": "setTokenStakeHolder",
      "outputs": [],
      "stateMutability": "nonpayable",
      "type": "function"
    }
  ],
  "bytecode": "0x608060405234801561001057600080fd5b50600180546001600160a01b0319908116730d81dfc1861aab6a0124d28c0e8d2673051d470f1790915560028054821673d9e0f4faaa6d12c8a3d0e9b1db137a185f38c9751790556801158e460913d000006000556003805490911673ed14018aeb46fa52af49708ac83948f5785408c7179055610792806100936000396000f3fe608060405234801561001057600080fd5b506004361061010b5760003560e01c80637c5bd498116100a2578063adde7c5311610071578063adde7c53146101e5578063aefe1cf814610215578063cbf3f8611461021e578063d0d552dd1461024e578063edc7b1581461027e57600080fd5b80637c5bd498146101ad5780637dbf67a7146101b657806391993b61146101c9578063951a2e34146101dc57600080fd5b806349f31768116100de57806349f317681461017f5780635bd5c85a146101925780635d7d4b751461019b5780636d81a8d6146101a457600080fd5b806316f1b81d146101105780631afccbe51461014057806327cab4061461015557806341786ea31461016c575b600080fd5b600254610123906001600160a01b031681565b6040516001600160a01b0390911681526020015b60405180910390f35b61015361014e3660046105c2565b610287565b005b61015e60055481565b604051908152602001610137565b61015361017a366004610641565b600055565b600154610123906001600160a01b031681565b61015e600a5481565b61015e60095481565b61015e60005481565b61015e60075481565b6101536101c4366004610641565b600a55565b600354610123906001600160a01b031681565b61015e60045481565b6101536101f336600461065a565b600280546001600160a01b0319166001600160a01b0392909216919091179055565b61015e60085481565b61015361022c36600461065a565b600380546001600160a01b0319166001600160a01b0392909216919091179055565b61015361025c36600461065a565b600180546001600160a01b0319166001600160a01b0392909216919091179055565b61015e60065481565b6001546040516370a0823160e01b815233600482015284916001600160a01b0316906370a0823190602401602060405180830381865afa1580156102cf573d6000803e3d6000fd5b505050506040513d601f19601f820116820180604052508101906102f3919061068a565b101561033e5760405162461bcd60e51b81526020600482015260166024820152754655434b205520444f4e542048415645204d4f4e455960501b604482015260640160405180910390fd5b600254604080516318160ddd60e01b815290516000926001600160a01b0316916318160ddd9160048083019260209291908290030181865afa158015610388573d6000803e3d6000fd5b505050506040513d601f19601f820116820180604052508101906103ac919061068a565b905080600581905550600060646000546103c691906106b9565b600881905590506000670de0b6b3a76400006103e283886106db565b6103ec91906106b9565b9050600080600088600a5461040191906106f8565b600a55600484905560005b878110156105b6576002546001600160a01b03166370a082318a8a848181106104375761043761070b565b905060200201602081019061044c919061065a565b6040516001600160e01b031960e084901b1681526001600160a01b039091166004820152602401602060405180830381865afa158015610490573d6000803e3d6000fd5b505050506040513d601f19601f820116820180604052508101906104b4919061068a565b93506104c16064856106b9565b60098190559150670de0b6b3a76400006104db83876106db565b6104e591906106b9565b600681905560078590556001549093506001600160a01b03166323b872dd338b8b858181106105165761051661070b565b905060200201602081019061052b919061065a565b6040516001600160e01b031960e085901b1681526001600160a01b03928316600482015291166024820152604481018690526064016020604051808303816000875af115801561057f573d6000803e3d6000fd5b505050506040513d601f19601f820116820180604052508101906105a39190610721565b50806105ae81610743565b91505061040c565b50505050505050505050565b6000806000604084860312156105d757600080fd5b83359250602084013567ffffffffffffffff808211156105f657600080fd5b818601915086601f83011261060a57600080fd5b81358181111561061957600080fd5b8760208260051b850101111561062e57600080fd5b6020830194508093505050509250925092565b60006020828403121561065357600080fd5b5035919050565b60006020828403121561066c57600080fd5b81356001600160a01b038116811461068357600080fd5b9392505050565b60006020828403121561069c57600080fd5b5051919050565b634e487b7160e01b600052601160045260246000fd5b6000826106d657634e487b7160e01b600052601260045260246000fd5b500490565b80820281158282048414176106f2576106f26106a3565b92915050565b818103818111156106f2576106f26106a3565b634e487b7160e01b600052603260045260246000fd5b60006020828403121561073357600080fd5b8151801515811461068357600080fd5b600060018201610755576107556106a3565b506001019056fea2646970667358221220a765117372936513233fcd7b5518a68a9d11deeb3bd71241c3b4071923ceca1564736f6c63430008110033",
  "linkReferences": {},
  "deployedLinkReferences": {}
}