{"contracts/Vaults.sol":{"Vaults":{"abi":[{"inputs":[],"stateMutability":"nonpayable","type":"constructor"},{"inputs":[],"name":"_identityRegistry","outputs":[{"internalType":"address","name":"","type":"address"}],"stateMutability":"view","type":"function"},{"inputs":[],"name":"_paybackPercent","outputs":[{"internalType":"uint256","name":"","type":"uint256"}],"stateMutability":"view","type":"function"},{"inputs":[],"name":"_percent","outputs":[{"internalType":"uint256","name":"","type":"uint256"}],"stateMutability":"view","type":"function"},{"inputs":[],"name":"_percentStakeHolder","outputs":[{"internalType":"uint256","name":"","type":"uint256"}],"stateMutability":"view","type":"function"},{"inputs":[],"name":"_recentShare","outputs":[{"internalType":"uint256","name":"","type":"uint256"}],"stateMutability":"view","type":"function"},{"inputs":[],"name":"_remainingDebt","outputs":[{"internalType":"uint256","name":"","type":"uint256"}],"stateMutability":"view","type":"function"},{"inputs":[],"name":"_stakeHolderBalance","outputs":[{"internalType":"uint256","name":"","type":"uint256"}],"stateMutability":"view","type":"function"},{"inputs":[],"name":"_stakeHolderSupply","outputs":[{"internalType":"uint256","name":"","type":"uint256"}],"stateMutability":"view","type":"function"},{"inputs":[],"name":"_tokenAsset","outputs":[{"internalType":"address","name":"","type":"address"}],"stateMutability":"view","type":"function"},{"inputs":[],"name":"_tokenStakeholder","outputs":[{"internalType":"address","name":"","type":"address"}],"stateMutability":"view","type":"function"},{"inputs":[],"name":"_transferBalance","outputs":[{"internalType":"uint256","name":"","type":"uint256"}],"stateMutability":"view","type":"function"},{"inputs":[{"internalType":"uint256","name":"amount","type":"uint256"},{"internalType":"address[]","name":"holders","type":"address[]"}],"name":"depositRevenue","outputs":[],"stateMutability":"nonpayable","type":"function"},{"inputs":[{"internalType":"address","name":"_newAsset","type":"address"}],"name":"setAsset","outputs":[],"stateMutability":"nonpayable","type":"function"},{"inputs":[{"internalType":"uint256","name":"_debt","type":"uint256"}],"name":"setDebt","outputs":[],"stateMutability":"nonpayable","type":"function"},{"inputs":[{"internalType":"address","name":"_newIdentityRegistry","type":"address"}],"name":"setIdentityRegistry","outputs":[],"stateMutability":"nonpayable","type":"function"},{"inputs":[{"internalType":"uint256","name":"_newShare","type":"uint256"}],"name":"setPaybackPercent","outputs":[],"stateMutability":"nonpayable","type":"function"},{"inputs":[{"internalType":"address","name":"_newTokenStakeHolder","type":"address"}],"name":"setTokenStakeHolder","outputs":[],"stateMutability":"nonpayable","type":"function"}],"devdoc":{"kind":"dev","methods":{},"version":1},"evm":{"bytecode":{"linkReferences":{},"object":"608060405234801561001057600080fd5b50600180546001600160a01b0319908116730d81dfc1861aab6a0124d28c0e8d2673051d470f1790915560028054821673d9e0f4faaa6d12c8a3d0e9b1db137a185f38c9751790556801158e460913d000006000556003805490911673ed14018aeb46fa52af49708ac83948f5785408c7179055610792806100936000396000f3fe608060405234801561001057600080fd5b506004361061010b5760003560e01c80637c5bd498116100a2578063adde7c5311610071578063adde7c53146101e5578063aefe1cf814610215578063cbf3f8611461021e578063d0d552dd1461024e578063edc7b1581461027e57600080fd5b80637c5bd498146101ad5780637dbf67a7146101b657806391993b61146101c9578063951a2e34146101dc57600080fd5b806349f31768116100de57806349f317681461017f5780635bd5c85a146101925780635d7d4b751461019b5780636d81a8d6146101a457600080fd5b806316f1b81d146101105780631afccbe51461014057806327cab4061461015557806341786ea31461016c575b600080fd5b600254610123906001600160a01b031681565b6040516001600160a01b0390911681526020015b60405180910390f35b61015361014e3660046105c2565b610287565b005b61015e60055481565b604051908152602001610137565b61015361017a366004610641565b600055565b600154610123906001600160a01b031681565b61015e600a5481565b61015e60095481565b61015e60005481565b61015e60075481565b6101536101c4366004610641565b600a55565b600354610123906001600160a01b031681565b61015e60045481565b6101536101f336600461065a565b600280546001600160a01b0319166001600160a01b0392909216919091179055565b61015e60085481565b61015361022c36600461065a565b600380546001600160a01b0319166001600160a01b0392909216919091179055565b61015361025c36600461065a565b600180546001600160a01b0319166001600160a01b0392909216919091179055565b61015e60065481565b6001546040516370a0823160e01b815233600482015284916001600160a01b0316906370a0823190602401602060405180830381865afa1580156102cf573d6000803e3d6000fd5b505050506040513d601f19601f820116820180604052508101906102f3919061068a565b101561033e5760405162461bcd60e51b81526020600482015260166024820152754655434b205520444f4e542048415645204d4f4e455960501b604482015260640160405180910390fd5b600254604080516318160ddd60e01b815290516000926001600160a01b0316916318160ddd9160048083019260209291908290030181865afa158015610388573d6000803e3d6000fd5b505050506040513d601f19601f820116820180604052508101906103ac919061068a565b905080600581905550600060646000546103c691906106b9565b600881905590506000670de0b6b3a76400006103e283886106db565b6103ec91906106b9565b9050600080600088600a5461040191906106f8565b600a55600484905560005b878110156105b6576002546001600160a01b03166370a082318a8a848181106104375761043761070b565b905060200201602081019061044c919061065a565b6040516001600160e01b031960e084901b1681526001600160a01b039091166004820152602401602060405180830381865afa158015610490573d6000803e3d6000fd5b505050506040513d601f19601f820116820180604052508101906104b4919061068a565b93506104c16064856106b9565b60098190559150670de0b6b3a76400006104db83876106db565b6104e591906106b9565b600681905560078590556001549093506001600160a01b03166323b872dd338b8b858181106105165761051661070b565b905060200201602081019061052b919061065a565b6040516001600160e01b031960e085901b1681526001600160a01b03928316600482015291166024820152604481018690526064016020604051808303816000875af115801561057f573d6000803e3d6000fd5b505050506040513d601f19601f820116820180604052508101906105a39190610721565b50806105ae81610743565b91505061040c565b50505050505050505050565b6000806000604084860312156105d757600080fd5b83359250602084013567ffffffffffffffff808211156105f657600080fd5b818601915086601f83011261060a57600080fd5b81358181111561061957600080fd5b8760208260051b850101111561062e57600080fd5b6020830194508093505050509250925092565b60006020828403121561065357600080fd5b5035919050565b60006020828403121561066c57600080fd5b81356001600160a01b038116811461068357600080fd5b9392505050565b60006020828403121561069c57600080fd5b5051919050565b634e487b7160e01b600052601160045260246000fd5b6000826106d657634e487b7160e01b600052601260045260246000fd5b500490565b80820281158282048414176106f2576106f26106a3565b92915050565b818103818111156106f2576106f26106a3565b634e487b7160e01b600052603260045260246000fd5b60006020828403121561073357600080fd5b8151801515811461068357600080fd5b600060018201610755576107556106a3565b506001019056fea2646970667358221220a765117372936513233fcd7b5518a68a9d11deeb3bd71241c3b4071923ceca1564736f6c63430008110033","opcodes":"PUSH1 0x80 PUSH1 0x40 MSTORE CALLVALUE DUP1 ISZERO PUSH2 0x10 JUMPI PUSH1 0x0 DUP1 REVERT JUMPDEST POP PUSH1 0x1 DUP1 SLOAD PUSH1 0x1 PUSH1 0x1 PUSH1 0xA0 SHL SUB NOT SWAP1 DUP2 AND PUSH20 0xD81DFC1861AAB6A0124D28C0E8D2673051D470F OR SWAP1 SWAP2 SSTORE PUSH1 0x2 DUP1 SLOAD DUP3 AND PUSH20 0xD9E0F4FAAA6D12C8A3D0E9B1DB137A185F38C975 OR SWAP1 SSTORE PUSH9 0x1158E460913D00000 PUSH1 0x0 SSTORE PUSH1 0x3 DUP1 SLOAD SWAP1 SWAP2 AND PUSH20 0xED14018AEB46FA52AF49708AC83948F5785408C7 OR SWAP1 SSTORE PUSH2 0x792 DUP1 PUSH2 0x93 PUSH1 0x0 CODECOPY PUSH1 0x0 RETURN INVALID PUSH1 0x80 PUSH1 0x40 MSTORE CALLVALUE DUP1 ISZERO PUSH2 0x10 JUMPI PUSH1 0x0 DUP1 REVERT JUMPDEST POP PUSH1 0x4 CALLDATASIZE LT PUSH2 0x10B JUMPI PUSH1 0x0 CALLDATALOAD PUSH1 0xE0 SHR DUP1 PUSH4 0x7C5BD498 GT PUSH2 0xA2 JUMPI DUP1 PUSH4 0xADDE7C53 GT PUSH2 0x71 JUMPI DUP1 PUSH4 0xADDE7C53 EQ PUSH2 0x1E5 JUMPI DUP1 PUSH4 0xAEFE1CF8 EQ PUSH2 0x215 JUMPI DUP1 PUSH4 0xCBF3F861 EQ PUSH2 0x21E JUMPI DUP1 PUSH4 0xD0D552DD EQ PUSH2 0x24E JUMPI DUP1 PUSH4 0xEDC7B158 EQ PUSH2 0x27E JUMPI PUSH1 0x0 DUP1 REVERT JUMPDEST DUP1 PUSH4 0x7C5BD498 EQ PUSH2 0x1AD JUMPI DUP1 PUSH4 0x7DBF67A7 EQ PUSH2 0x1B6 JUMPI DUP1 PUSH4 0x91993B61 EQ PUSH2 0x1C9 JUMPI DUP1 PUSH4 0x951A2E34 EQ PUSH2 0x1DC JUMPI PUSH1 0x0 DUP1 REVERT JUMPDEST DUP1 PUSH4 0x49F31768 GT PUSH2 0xDE JUMPI DUP1 PUSH4 0x49F31768 EQ PUSH2 0x17F JUMPI DUP1 PUSH4 0x5BD5C85A EQ PUSH2 0x192 JUMPI DUP1 PUSH4 0x5D7D4B75 EQ PUSH2 0x19B JUMPI DUP1 PUSH4 0x6D81A8D6 EQ PUSH2 0x1A4 JUMPI PUSH1 0x0 DUP1 REVERT JUMPDEST DUP1 PUSH4 0x16F1B81D EQ PUSH2 0x110 JUMPI DUP1 PUSH4 0x1AFCCBE5 EQ PUSH2 0x140 JUMPI DUP1 PUSH4 0x27CAB406 EQ PUSH2 0x155 JUMPI DUP1 PUSH4 0x41786EA3 EQ PUSH2 0x16C JUMPI JUMPDEST PUSH1 0x0 DUP1 REVERT JUMPDEST PUSH1 0x2 SLOAD PUSH2 0x123 SWAP1 PUSH1 0x1 PUSH1 0x1 PUSH1 0xA0 SHL SUB AND DUP2 JUMP JUMPDEST PUSH1 0x40 MLOAD PUSH1 0x1 PUSH1 0x1 PUSH1 0xA0 SHL SUB SWAP1 SWAP2 AND DUP2 MSTORE PUSH1 0x20 ADD JUMPDEST PUSH1 0x40 MLOAD DUP1 SWAP2 SUB SWAP1 RETURN JUMPDEST PUSH2 0x153 PUSH2 0x14E CALLDATASIZE PUSH1 0x4 PUSH2 0x5C2 JUMP JUMPDEST PUSH2 0x287 JUMP JUMPDEST STOP JUMPDEST PUSH2 0x15E PUSH1 0x5 SLOAD DUP2 JUMP JUMPDEST PUSH1 0x40 MLOAD SWAP1 DUP2 MSTORE PUSH1 0x20 ADD PUSH2 0x137 JUMP JUMPDEST PUSH2 0x153 PUSH2 0x17A CALLDATASIZE PUSH1 0x4 PUSH2 0x641 JUMP JUMPDEST PUSH1 0x0 SSTORE JUMP JUMPDEST PUSH1 0x1 SLOAD PUSH2 0x123 SWAP1 PUSH1 0x1 PUSH1 0x1 PUSH1 0xA0 SHL SUB AND DUP2 JUMP JUMPDEST PUSH2 0x15E PUSH1 0xA SLOAD DUP2 JUMP JUMPDEST PUSH2 0x15E PUSH1 0x9 SLOAD DUP2 JUMP JUMPDEST PUSH2 0x15E PUSH1 0x0 SLOAD DUP2 JUMP JUMPDEST PUSH2 0x15E PUSH1 0x7 SLOAD DUP2 JUMP JUMPDEST PUSH2 0x153 PUSH2 0x1C4 CALLDATASIZE PUSH1 0x4 PUSH2 0x641 JUMP JUMPDEST PUSH1 0xA SSTORE JUMP JUMPDEST PUSH1 0x3 SLOAD PUSH2 0x123 SWAP1 PUSH1 0x1 PUSH1 0x1 PUSH1 0xA0 SHL SUB AND DUP2 JUMP JUMPDEST PUSH2 0x15E PUSH1 0x4 SLOAD DUP2 JUMP JUMPDEST PUSH2 0x153 PUSH2 0x1F3 CALLDATASIZE PUSH1 0x4 PUSH2 0x65A JUMP JUMPDEST PUSH1 0x2 DUP1 SLOAD PUSH1 0x1 PUSH1 0x1 PUSH1 0xA0 SHL SUB NOT AND PUSH1 0x1 PUSH1 0x1 PUSH1 0xA0 SHL SUB SWAP3 SWAP1 SWAP3 AND SWAP2 SWAP1 SWAP2 OR SWAP1 SSTORE JUMP JUMPDEST PUSH2 0x15E PUSH1 0x8 SLOAD DUP2 JUMP JUMPDEST PUSH2 0x153 PUSH2 0x22C CALLDATASIZE PUSH1 0x4 PUSH2 0x65A JUMP JUMPDEST PUSH1 0x3 DUP1 SLOAD PUSH1 0x1 PUSH1 0x1 PUSH1 0xA0 SHL SUB NOT AND PUSH1 0x1 PUSH1 0x1 PUSH1 0xA0 SHL SUB SWAP3 SWAP1 SWAP3 AND SWAP2 SWAP1 SWAP2 OR SWAP1 SSTORE JUMP JUMPDEST PUSH2 0x153 PUSH2 0x25C CALLDATASIZE PUSH1 0x4 PUSH2 0x65A JUMP JUMPDEST PUSH1 0x1 DUP1 SLOAD PUSH1 0x1 PUSH1 0x1 PUSH1 0xA0 SHL SUB NOT AND PUSH1 0x1 PUSH1 0x1 PUSH1 0xA0 SHL SUB SWAP3 SWAP1 SWAP3 AND SWAP2 SWAP1 SWAP2 OR SWAP1 SSTORE JUMP JUMPDEST PUSH2 0x15E PUSH1 0x6 SLOAD DUP2 JUMP JUMPDEST PUSH1 0x1 SLOAD PUSH1 0x40 MLOAD PUSH4 0x70A08231 PUSH1 0xE0 SHL DUP2 MSTORE CALLER PUSH1 0x4 DUP3 ADD MSTORE DUP5 SWAP2 PUSH1 0x1 PUSH1 0x1 PUSH1 0xA0 SHL SUB AND SWAP1 PUSH4 0x70A08231 SWAP1 PUSH1 0x24 ADD PUSH1 0x20 PUSH1 0x40 MLOAD DUP1 DUP4 SUB DUP2 DUP7 GAS STATICCALL ISZERO DUP1 ISZERO PUSH2 0x2CF JUMPI RETURNDATASIZE PUSH1 0x0 DUP1 RETURNDATACOPY RETURNDATASIZE PUSH1 0x0 REVERT JUMPDEST POP POP POP POP PUSH1 0x40 MLOAD RETURNDATASIZE PUSH1 0x1F NOT PUSH1 0x1F DUP3 ADD AND DUP3 ADD DUP1 PUSH1 0x40 MSTORE POP DUP2 ADD SWAP1 PUSH2 0x2F3 SWAP2 SWAP1 PUSH2 0x68A JUMP JUMPDEST LT ISZERO PUSH2 0x33E JUMPI PUSH1 0x40 MLOAD PUSH3 0x461BCD PUSH1 0xE5 SHL DUP2 MSTORE PUSH1 0x20 PUSH1 0x4 DUP3 ADD MSTORE PUSH1 0x16 PUSH1 0x24 DUP3 ADD MSTORE PUSH22 0x4655434B205520444F4E542048415645204D4F4E4559 PUSH1 0x50 SHL PUSH1 0x44 DUP3 ADD MSTORE PUSH1 0x64 ADD PUSH1 0x40 MLOAD DUP1 SWAP2 SUB SWAP1 REVERT JUMPDEST PUSH1 0x2 SLOAD PUSH1 0x40 DUP1 MLOAD PUSH4 0x18160DDD PUSH1 0xE0 SHL DUP2 MSTORE SWAP1 MLOAD PUSH1 0x0 SWAP3 PUSH1 0x1 PUSH1 0x1 PUSH1 0xA0 SHL SUB AND SWAP2 PUSH4 0x18160DDD SWAP2 PUSH1 0x4 DUP1 DUP4 ADD SWAP3 PUSH1 0x20 SWAP3 SWAP2 SWAP1 DUP3 SWAP1 SUB ADD DUP2 DUP7 GAS STATICCALL ISZERO DUP1 ISZERO PUSH2 0x388 JUMPI RETURNDATASIZE PUSH1 0x0 DUP1 RETURNDATACOPY RETURNDATASIZE PUSH1 0x0 REVERT JUMPDEST POP POP POP POP PUSH1 0x40 MLOAD RETURNDATASIZE PUSH1 0x1F NOT PUSH1 0x1F DUP3 ADD AND DUP3 ADD DUP1 PUSH1 0x40 MSTORE POP DUP2 ADD SWAP1 PUSH2 0x3AC SWAP2 SWAP1 PUSH2 0x68A JUMP JUMPDEST SWAP1 POP DUP1 PUSH1 0x5 DUP2 SWAP1 SSTORE POP PUSH1 0x0 PUSH1 0x64 PUSH1 0x0 SLOAD PUSH2 0x3C6 SWAP2 SWAP1 PUSH2 0x6B9 JUMP JUMPDEST PUSH1 0x8 DUP2 SWAP1 SSTORE SWAP1 POP PUSH1 0x0 PUSH8 0xDE0B6B3A7640000 PUSH2 0x3E2 DUP4 DUP9 PUSH2 0x6DB JUMP JUMPDEST PUSH2 0x3EC SWAP2 SWAP1 PUSH2 0x6B9 JUMP JUMPDEST SWAP1 POP PUSH1 0x0 DUP1 PUSH1 0x0 DUP9 PUSH1 0xA SLOAD PUSH2 0x401 SWAP2 SWAP1 PUSH2 0x6F8 JUMP JUMPDEST PUSH1 0xA SSTORE PUSH1 0x4 DUP5 SWAP1 SSTORE PUSH1 0x0 JUMPDEST DUP8 DUP2 LT ISZERO PUSH2 0x5B6 JUMPI PUSH1 0x2 SLOAD PUSH1 0x1 PUSH1 0x1 PUSH1 0xA0 SHL SUB AND PUSH4 0x70A08231 DUP11 DUP11 DUP5 DUP2 DUP2 LT PUSH2 0x437 JUMPI PUSH2 0x437 PUSH2 0x70B JUMP JUMPDEST SWAP1 POP PUSH1 0x20 MUL ADD PUSH1 0x20 DUP2 ADD SWAP1 PUSH2 0x44C SWAP2 SWAP1 PUSH2 0x65A JUMP JUMPDEST PUSH1 0x40 MLOAD PUSH1 0x1 PUSH1 0x1 PUSH1 0xE0 SHL SUB NOT PUSH1 0xE0 DUP5 SWAP1 SHL AND DUP2 MSTORE PUSH1 0x1 PUSH1 0x1 PUSH1 0xA0 SHL SUB SWAP1 SWAP2 AND PUSH1 0x4 DUP3 ADD MSTORE PUSH1 0x24 ADD PUSH1 0x20 PUSH1 0x40 MLOAD DUP1 DUP4 SUB DUP2 DUP7 GAS STATICCALL ISZERO DUP1 ISZERO PUSH2 0x490 JUMPI RETURNDATASIZE PUSH1 0x0 DUP1 RETURNDATACOPY RETURNDATASIZE PUSH1 0x0 REVERT JUMPDEST POP POP POP POP PUSH1 0x40 MLOAD RETURNDATASIZE PUSH1 0x1F NOT PUSH1 0x1F DUP3 ADD AND DUP3 ADD DUP1 PUSH1 0x40 MSTORE POP DUP2 ADD SWAP1 PUSH2 0x4B4 SWAP2 SWAP1 PUSH2 0x68A JUMP JUMPDEST SWAP4 POP PUSH2 0x4C1 PUSH1 0x64 DUP6 PUSH2 0x6B9 JUMP JUMPDEST PUSH1 0x9 DUP2 SWAP1 SSTORE SWAP2 POP PUSH8 0xDE0B6B3A7640000 PUSH2 0x4DB DUP4 DUP8 PUSH2 0x6DB JUMP JUMPDEST PUSH2 0x4E5 SWAP2 SWAP1 PUSH2 0x6B9 JUMP JUMPDEST PUSH1 0x6 DUP2 SWAP1 SSTORE PUSH1 0x7 DUP6 SWAP1 SSTORE PUSH1 0x1 SLOAD SWAP1 SWAP4 POP PUSH1 0x1 PUSH1 0x1 PUSH1 0xA0 SHL SUB AND PUSH4 0x23B872DD CALLER DUP12 DUP12 DUP6 DUP2 DUP2 LT PUSH2 0x516 JUMPI PUSH2 0x516 PUSH2 0x70B JUMP JUMPDEST SWAP1 POP PUSH1 0x20 MUL ADD PUSH1 0x20 DUP2 ADD SWAP1 PUSH2 0x52B SWAP2 SWAP1 PUSH2 0x65A JUMP JUMPDEST PUSH1 0x40 MLOAD PUSH1 0x1 PUSH1 0x1 PUSH1 0xE0 SHL SUB NOT PUSH1 0xE0 DUP6 SWAP1 SHL AND DUP2 MSTORE PUSH1 0x1 PUSH1 0x1 PUSH1 0xA0 SHL SUB SWAP3 DUP4 AND PUSH1 0x4 DUP3 ADD MSTORE SWAP2 AND PUSH1 0x24 DUP3 ADD MSTORE PUSH1 0x44 DUP2 ADD DUP7 SWAP1 MSTORE PUSH1 0x64 ADD PUSH1 0x20 PUSH1 0x40 MLOAD DUP1 DUP4 SUB DUP2 PUSH1 0x0 DUP8 GAS CALL ISZERO DUP1 ISZERO PUSH2 0x57F JUMPI RETURNDATASIZE PUSH1 0x0 DUP1 RETURNDATACOPY RETURNDATASIZE PUSH1 0x0 REVERT JUMPDEST POP POP POP POP PUSH1 0x40 MLOAD RETURNDATASIZE PUSH1 0x1F NOT PUSH1 0x1F DUP3 ADD AND DUP3 ADD DUP1 PUSH1 0x40 MSTORE POP DUP2 ADD SWAP1 PUSH2 0x5A3 SWAP2 SWAP1 PUSH2 0x721 JUMP JUMPDEST POP DUP1 PUSH2 0x5AE DUP2 PUSH2 0x743 JUMP JUMPDEST SWAP2 POP POP PUSH2 0x40C JUMP JUMPDEST POP POP POP POP POP POP POP POP POP POP JUMP JUMPDEST PUSH1 0x0 DUP1 PUSH1 0x0 PUSH1 0x40 DUP5 DUP7 SUB SLT ISZERO PUSH2 0x5D7 JUMPI PUSH1 0x0 DUP1 REVERT JUMPDEST DUP4 CALLDATALOAD SWAP3 POP PUSH1 0x20 DUP5 ADD CALLDATALOAD PUSH8 0xFFFFFFFFFFFFFFFF DUP1 DUP3 GT ISZERO PUSH2 0x5F6 JUMPI PUSH1 0x0 DUP1 REVERT JUMPDEST DUP2 DUP7 ADD SWAP2 POP DUP7 PUSH1 0x1F DUP4 ADD SLT PUSH2 0x60A JUMPI PUSH1 0x0 DUP1 REVERT JUMPDEST DUP2 CALLDATALOAD DUP2 DUP2 GT ISZERO PUSH2 0x619 JUMPI PUSH1 0x0 DUP1 REVERT JUMPDEST DUP8 PUSH1 0x20 DUP3 PUSH1 0x5 SHL DUP6 ADD ADD GT ISZERO PUSH2 0x62E JUMPI PUSH1 0x0 DUP1 REVERT JUMPDEST PUSH1 0x20 DUP4 ADD SWAP5 POP DUP1 SWAP4 POP POP POP POP SWAP3 POP SWAP3 POP SWAP3 JUMP JUMPDEST PUSH1 0x0 PUSH1 0x20 DUP3 DUP5 SUB SLT ISZERO PUSH2 0x653 JUMPI PUSH1 0x0 DUP1 REVERT JUMPDEST POP CALLDATALOAD SWAP2 SWAP1 POP JUMP JUMPDEST PUSH1 0x0 PUSH1 0x20 DUP3 DUP5 SUB SLT ISZERO PUSH2 0x66C JUMPI PUSH1 0x0 DUP1 REVERT JUMPDEST DUP2 CALLDATALOAD PUSH1 0x1 PUSH1 0x1 PUSH1 0xA0 SHL SUB DUP2 AND DUP2 EQ PUSH2 0x683 JUMPI PUSH1 0x0 DUP1 REVERT JUMPDEST SWAP4 SWAP3 POP POP POP JUMP JUMPDEST PUSH1 0x0 PUSH1 0x20 DUP3 DUP5 SUB SLT ISZERO PUSH2 0x69C JUMPI PUSH1 0x0 DUP1 REVERT JUMPDEST POP MLOAD SWAP2 SWAP1 POP JUMP JUMPDEST PUSH4 0x4E487B71 PUSH1 0xE0 SHL PUSH1 0x0 MSTORE PUSH1 0x11 PUSH1 0x4 MSTORE PUSH1 0x24 PUSH1 0x0 REVERT JUMPDEST PUSH1 0x0 DUP3 PUSH2 0x6D6 JUMPI PUSH4 0x4E487B71 PUSH1 0xE0 SHL PUSH1 0x0 MSTORE PUSH1 0x12 PUSH1 0x4 MSTORE PUSH1 0x24 PUSH1 0x0 REVERT JUMPDEST POP DIV SWAP1 JUMP JUMPDEST DUP1 DUP3 MUL DUP2 ISZERO DUP3 DUP3 DIV DUP5 EQ OR PUSH2 0x6F2 JUMPI PUSH2 0x6F2 PUSH2 0x6A3 JUMP JUMPDEST SWAP3 SWAP2 POP POP JUMP JUMPDEST DUP2 DUP2 SUB DUP2 DUP2 GT ISZERO PUSH2 0x6F2 JUMPI PUSH2 0x6F2 PUSH2 0x6A3 JUMP JUMPDEST PUSH4 0x4E487B71 PUSH1 0xE0 SHL PUSH1 0x0 MSTORE PUSH1 0x32 PUSH1 0x4 MSTORE PUSH1 0x24 PUSH1 0x0 REVERT JUMPDEST PUSH1 0x0 PUSH1 0x20 DUP3 DUP5 SUB SLT ISZERO PUSH2 0x733 JUMPI PUSH1 0x0 DUP1 REVERT JUMPDEST DUP2 MLOAD DUP1 ISZERO ISZERO DUP2 EQ PUSH2 0x683 JUMPI PUSH1 0x0 DUP1 REVERT JUMPDEST PUSH1 0x0 PUSH1 0x1 DUP3 ADD PUSH2 0x755 JUMPI PUSH2 0x755 PUSH2 0x6A3 JUMP JUMPDEST POP PUSH1 0x1 ADD SWAP1 JUMP INVALID LOG2 PUSH5 0x6970667358 0x22 SLT KECCAK256 0xA7 PUSH6 0x117372936513 0x23 EXTCODEHASH 0xCD PUSH28 0x5518A68A9D11DEEB3BD71241C3B4071923CECA1564736F6C63430008 GT STOP CALLER "},"gasEstimates":{"creation":{"codeDepositCost":"387600","executionCost":"95220","totalCost":"482820"},"external":{"_identityRegistry()":"2393","_paybackPercent()":"2384","_percent()":"2339","_percentStakeHolder()":"2362","_recentShare()":"2384","_remainingDebt()":"2340","_stakeHolderBalance()":"2318","_stakeHolderSupply()":"2363","_tokenAsset()":"2349","_tokenStakeholder()":"2350","_transferBalance()":"2405","depositRevenue(uint256,address[])":"infinite","setAsset(address)":"24612","setDebt(uint256)":"22357","setIdentityRegistry(address)":"24590","setPaybackPercent(uint256)":"22402","setTokenStakeHolder(address)":"24546"}},"methodIdentifiers":{"_identityRegistry()":"91993b61","_paybackPercent()":"6d81a8d6","_percent()":"aefe1cf8","_percentStakeHolder()":"5d7d4b75","_recentShare()":"951a2e34","_remainingDebt()":"5bd5c85a","_stakeHolderBalance()":"7c5bd498","_stakeHolderSupply()":"27cab406","_tokenAsset()":"49f31768","_tokenStakeholder()":"16f1b81d","_transferBalance()":"edc7b158","depositRevenue(uint256,address[])":"1afccbe5","setAsset(address)":"d0d552dd","setDebt(uint256)":"7dbf67a7","setIdentityRegistry(address)":"cbf3f861","setPaybackPercent(uint256)":"41786ea3","setTokenStakeHolder(address)":"adde7c53"}},"storageLayout":{"storage":[{"astId":692,"contract":"contracts/Vaults.sol:Vaults","label":"_paybackPercent","offset":0,"slot":"0","type":"t_uint256"},{"astId":694,"contract":"contracts/Vaults.sol:Vaults","label":"_tokenAsset","offset":0,"slot":"1","type":"t_address"},{"astId":696,"contract":"contracts/Vaults.sol:Vaults","label":"_tokenStakeholder","offset":0,"slot":"2","type":"t_address"},{"astId":698,"contract":"contracts/Vaults.sol:Vaults","label":"_identityRegistry","offset":0,"slot":"3","type":"t_address"},{"astId":700,"contract":"contracts/Vaults.sol:Vaults","label":"_recentShare","offset":0,"slot":"4","type":"t_uint256"},{"astId":702,"contract":"contracts/Vaults.sol:Vaults","label":"_stakeHolderSupply","offset":0,"slot":"5","type":"t_uint256"},{"astId":704,"contract":"contracts/Vaults.sol:Vaults","label":"_transferBalance","offset":0,"slot":"6","type":"t_uint256"},{"astId":706,"contract":"contracts/Vaults.sol:Vaults","label":"_stakeHolderBalance","offset":0,"slot":"7","type":"t_uint256"},{"astId":708,"contract":"contracts/Vaults.sol:Vaults","label":"_percent","offset":0,"slot":"8","type":"t_uint256"},{"astId":710,"contract":"contracts/Vaults.sol:Vaults","label":"_percentStakeHolder","offset":0,"slot":"9","type":"t_uint256"},{"astId":712,"contract":"contracts/Vaults.sol:Vaults","label":"_remainingDebt","offset":0,"slot":"10","type":"t_uint256"}],"types":{"t_address":{"encoding":"inplace","label":"address","numberOfBytes":"20"},"t_uint256":{"encoding":"inplace","label":"uint256","numberOfBytes":"32"}}},"userdoc":{"kind":"user","methods":{},"version":1}}}}