{"contracts/Vaults.sol":{"RevenueVaults":{"abi":[{"inputs":[],"name":"_identityRegistry","outputs":[{"internalType":"address","name":"","type":"address"}],"stateMutability":"view","type":"function"},{"inputs":[],"name":"_tokenAsset","outputs":[{"internalType":"address","name":"","type":"address"}],"stateMutability":"view","type":"function"},{"inputs":[],"name":"_tokenStakeholder","outputs":[{"internalType":"address","name":"","type":"address"}],"stateMutability":"view","type":"function"},{"inputs":[{"internalType":"address","name":"_newAsset","type":"address"}],"name":"setAsset","outputs":[],"stateMutability":"nonpayable","type":"function"},{"inputs":[{"internalType":"address","name":"_newIdentityRegistry","type":"address"}],"name":"setIdentityRegistry","outputs":[],"stateMutability":"nonpayable","type":"function"},{"inputs":[{"internalType":"uint8","name":"_newShare","type":"uint8"}],"name":"setPaybackPercent","outputs":[],"stateMutability":"nonpayable","type":"function"},{"inputs":[{"internalType":"address","name":"_newTokenStakeHolder","type":"address"}],"name":"setTokenStakeHolder","outputs":[],"stateMutability":"nonpayable","type":"function"}],"devdoc":{"kind":"dev","methods":{},"version":1},"evm":{"bytecode":{"linkReferences":{},"object":"608060405234801561001057600080fd5b50610221806100206000396000f3fe608060405234801561001057600080fd5b506004361061007d5760003560e01c806391993b611161005b57806391993b61146100ef578063adde7c5314610102578063cbf3f86114610132578063d0d552dd1461016257600080fd5b8063042d94c81461008257806316f1b81d146100a857806349f31768146100d7575b600080fd5b6100a6610090366004610198565b6000805460ff191660ff92909216919091179055565b005b6001546100bb906001600160a01b031681565b6040516001600160a01b03909116815260200160405180910390f35b6000546100bb9061010090046001600160a01b031681565b6002546100bb906001600160a01b031681565b6100a66101103660046101c2565b600180546001600160a01b0319166001600160a01b0392909216919091179055565b6100a66101403660046101c2565b600280546001600160a01b0319166001600160a01b0392909216919091179055565b6100a66101703660046101c2565b600080546001600160a01b0390921661010002610100600160a81b0319909216919091179055565b6000602082840312156101aa57600080fd5b813560ff811681146101bb57600080fd5b9392505050565b6000602082840312156101d457600080fd5b81356001600160a01b03811681146101bb57600080fdfea26469706673582212205e6f93d7b998f927695faf5a48164100888818f04b5ee1b1e50b61ffae76ad9d64736f6c63430008110033","opcodes":"PUSH1 0x80 PUSH1 0x40 MSTORE CALLVALUE DUP1 ISZERO PUSH2 0x10 JUMPI PUSH1 0x0 DUP1 REVERT JUMPDEST POP PUSH2 0x221 DUP1 PUSH2 0x20 PUSH1 0x0 CODECOPY PUSH1 0x0 RETURN INVALID PUSH1 0x80 PUSH1 0x40 MSTORE CALLVALUE DUP1 ISZERO PUSH2 0x10 JUMPI PUSH1 0x0 DUP1 REVERT JUMPDEST POP PUSH1 0x4 CALLDATASIZE LT PUSH2 0x7D JUMPI PUSH1 0x0 CALLDATALOAD PUSH1 0xE0 SHR DUP1 PUSH4 0x91993B61 GT PUSH2 0x5B JUMPI DUP1 PUSH4 0x91993B61 EQ PUSH2 0xEF JUMPI DUP1 PUSH4 0xADDE7C53 EQ PUSH2 0x102 JUMPI DUP1 PUSH4 0xCBF3F861 EQ PUSH2 0x132 JUMPI DUP1 PUSH4 0xD0D552DD EQ PUSH2 0x162 JUMPI PUSH1 0x0 DUP1 REVERT JUMPDEST DUP1 PUSH4 0x42D94C8 EQ PUSH2 0x82 JUMPI DUP1 PUSH4 0x16F1B81D EQ PUSH2 0xA8 JUMPI DUP1 PUSH4 0x49F31768 EQ PUSH2 0xD7 JUMPI JUMPDEST PUSH1 0x0 DUP1 REVERT JUMPDEST PUSH2 0xA6 PUSH2 0x90 CALLDATASIZE PUSH1 0x4 PUSH2 0x198 JUMP JUMPDEST PUSH1 0x0 DUP1 SLOAD PUSH1 0xFF NOT AND PUSH1 0xFF SWAP3 SWAP1 SWAP3 AND SWAP2 SWAP1 SWAP2 OR SWAP1 SSTORE JUMP JUMPDEST STOP JUMPDEST PUSH1 0x1 SLOAD PUSH2 0xBB SWAP1 PUSH1 0x1 PUSH1 0x1 PUSH1 0xA0 SHL SUB AND DUP2 JUMP JUMPDEST PUSH1 0x40 MLOAD PUSH1 0x1 PUSH1 0x1 PUSH1 0xA0 SHL SUB SWAP1 SWAP2 AND DUP2 MSTORE PUSH1 0x20 ADD PUSH1 0x40 MLOAD DUP1 SWAP2 SUB SWAP1 RETURN JUMPDEST PUSH1 0x0 SLOAD PUSH2 0xBB SWAP1 PUSH2 0x100 SWAP1 DIV PUSH1 0x1 PUSH1 0x1 PUSH1 0xA0 SHL SUB AND DUP2 JUMP JUMPDEST PUSH1 0x2 SLOAD PUSH2 0xBB SWAP1 PUSH1 0x1 PUSH1 0x1 PUSH1 0xA0 SHL SUB AND DUP2 JUMP JUMPDEST PUSH2 0xA6 PUSH2 0x110 CALLDATASIZE PUSH1 0x4 PUSH2 0x1C2 JUMP JUMPDEST PUSH1 0x1 DUP1 SLOAD PUSH1 0x1 PUSH1 0x1 PUSH1 0xA0 SHL SUB NOT AND PUSH1 0x1 PUSH1 0x1 PUSH1 0xA0 SHL SUB SWAP3 SWAP1 SWAP3 AND SWAP2 SWAP1 SWAP2 OR SWAP1 SSTORE JUMP JUMPDEST PUSH2 0xA6 PUSH2 0x140 CALLDATASIZE PUSH1 0x4 PUSH2 0x1C2 JUMP JUMPDEST PUSH1 0x2 DUP1 SLOAD PUSH1 0x1 PUSH1 0x1 PUSH1 0xA0 SHL SUB NOT AND PUSH1 0x1 PUSH1 0x1 PUSH1 0xA0 SHL SUB SWAP3 SWAP1 SWAP3 AND SWAP2 SWAP1 SWAP2 OR SWAP1 SSTORE JUMP JUMPDEST PUSH2 0xA6 PUSH2 0x170 CALLDATASIZE PUSH1 0x4 PUSH2 0x1C2 JUMP JUMPDEST PUSH1 0x0 DUP1 SLOAD PUSH1 0x1 PUSH1 0x1 PUSH1 0xA0 SHL SUB SWAP1 SWAP3 AND PUSH2 0x100 MUL PUSH2 0x100 PUSH1 0x1 PUSH1 0xA8 SHL SUB NOT SWAP1 SWAP3 AND SWAP2 SWAP1 SWAP2 OR SWAP1 SSTORE JUMP JUMPDEST PUSH1 0x0 PUSH1 0x20 DUP3 DUP5 SUB SLT ISZERO PUSH2 0x1AA JUMPI PUSH1 0x0 DUP1 REVERT JUMPDEST DUP2 CALLDATALOAD PUSH1 0xFF DUP2 AND DUP2 EQ PUSH2 0x1BB JUMPI PUSH1 0x0 DUP1 REVERT JUMPDEST SWAP4 SWAP3 POP POP POP JUMP JUMPDEST PUSH1 0x0 PUSH1 0x20 DUP3 DUP5 SUB SLT ISZERO PUSH2 0x1D4 JUMPI PUSH1 0x0 DUP1 REVERT JUMPDEST DUP2 CALLDATALOAD PUSH1 0x1 PUSH1 0x1 PUSH1 0xA0 SHL SUB DUP2 AND DUP2 EQ PUSH2 0x1BB JUMPI PUSH1 0x0 DUP1 REVERT INVALID LOG2 PUSH5 0x6970667358 0x22 SLT KECCAK256 0x5E PUSH16 0x93D7B998F927695FAF5A481641008888 XOR CREATE 0x4B 0x5E 0xE1 0xB1 0xE5 SIGNEXTEND PUSH2 0xFFAE PUSH23 0xAD9D64736F6C6343000811003300000000000000000000 "},"gasEstimates":{"creation":{"codeDepositCost":"109000","executionCost":"159","totalCost":"109159"},"external":{"_identityRegistry()":"2325","_tokenAsset()":"2381","_tokenStakeholder()":"2348","setAsset(address)":"24601","setIdentityRegistry(address)":"24568","setPaybackPercent(uint8)":"24489","setTokenStakeHolder(address)":"24546"}},"methodIdentifiers":{"_identityRegistry()":"91993b61","_tokenAsset()":"49f31768","_tokenStakeholder()":"16f1b81d","setAsset(address)":"d0d552dd","setIdentityRegistry(address)":"cbf3f861","setPaybackPercent(uint8)":"042d94c8","setTokenStakeHolder(address)":"adde7c53"}},"storageLayout":{"storage":[{"astId":254,"contract":"contracts/Vaults.sol:RevenueVaults","label":"_paybackPercent","offset":0,"slot":"0","type":"t_uint8"},{"astId":256,"contract":"contracts/Vaults.sol:RevenueVaults","label":"_tokenAsset","offset":1,"slot":"0","type":"t_address"},{"astId":258,"contract":"contracts/Vaults.sol:RevenueVaults","label":"_tokenStakeholder","offset":0,"slot":"1","type":"t_address"},{"astId":260,"contract":"contracts/Vaults.sol:RevenueVaults","label":"_identityRegistry","offset":0,"slot":"2","type":"t_address"}],"types":{"t_address":{"encoding":"inplace","label":"address","numberOfBytes":"20"},"t_uint8":{"encoding":"inplace","label":"uint8","numberOfBytes":"1"}}},"userdoc":{"kind":"user","methods":{},"version":1}}}}